:100000000C945D000C9485000C9485000C94850084
:100010000C9485000C9485000C9485000C9485004C
:100020000C9485000C9485000C9485000C9485003C
:100030000C9485000C9485000C9485000C9485002C
:100040000C942B020C9485000C9499040C94CB0412
:100050000C9485000C94B3000C9485000C948500DE
:100060000C9485000C94850000000008000201003B
:100070000003040700000000000000000102040863
:100080001020408001020408102001020408102002
:10009000040404040404040402020202020203032E
:1000A0000303030300000000250028002B000000CC
:1000B0000000240027002A00FB0411241FBECFEFFC
:1000C000D8E0DEBFCDBF11E0A0E0B1E0E2E5FBE0AB
:1000D00002C005900D92A831B107D9F727E0A8E139
:1000E000B1E001C01D92AE3DB207E1F710E0CAEBEE
:1000F000D0E004C02297FE010E949A05C83BD107B8
:10010000C9F70E943F050C94A7050C940000CF92FC
:10011000DF92EF92FF922EE040E050EA6FE070E055
:1001200081E497E00E94370461E08DE00E94E502DF
:10013000C0900301D0900401E0900501F090060109
:100140000E9475026C0D7D1D8E1D9F1D6093260102
:10015000709327018093280190932901FF90EF90DD
:10016000DF90CF9008951F920F920FB60F92112437
:100170002F933F934F935F936F937F938F939F93AF
:10018000EF93FF93809178009091790090931B01F9
:1001900080931A012091240130912501F901EE0F7D
:1001A000FF1FEE5CFC4F9183808340911C01411145
:1001B0000AC040912101509122012417350718F0FF
:1001C00041E040931C0140911C01413091F5609148
:1001D00000014091180150911901662371F04817F0
:1001E000590738F560910101709102018617970750
:1001F00000F14617570770F01CC084179507C8F424
:1002000060910101709102016817790790F06417FD
:10021000750778F482E080931C0180912101909110
:10022000220190931E0180931D01309320012093A1
:100230001F01211582E0380728F010922501109245
:10024000240106C02F5F3F4F3093250120932401E6
:1002500080911C01813089F48091240190912501C5
:10026000892B59F482E080931C0110921E01109298
:100270001D011092200110921F0180911C018230FB
:1002800089F480911D0190911E01019690931E01A9
:1002900080931D018115924028F083E080931C011A
:1002A00087EA01C08FEE80937A00FF91EF919F91D2
:1002B0008F917F916F915F914F913F912F910F900F
:1002C0000FBE0F901F901895CF92DF92EF92FF9282
:1002D0000F931F93CF93DF9380912301813009F413
:1002E0005CC0E0F0823009F0ABC060E08DE00E94BD
:1002F0001E0381E497E00E94B003E0914107F09172
:1003000042070280F381E02D4EE054E06AE273E0A0
:1003100081E497E009951092230192C0C0902601D4
:10032000D0902701E0902801F09029010E947502E9
:100330006C157D058E059F0508F482C0C0900301F1
:10034000D0900401E0900501F09006010E94750232
:100350006C0D7D1D8E1D9F1D6093260170932701DE
:10036000809328019093290161E08DE00E941E0393
:10037000109225011092240110921C0180E48093B8
:100380007C0010927B0088E880937A008FEE809347
:100390007A00809123018F5F51C080911C018330CE
:1003A00009F04EC0E0901F01F09020018FEFE81699
:1003B000F104E1F0D8F000E012E00E191F09E701A6
:1003C000CC0FDD1FC65DDC4FA801BE018AE291E0C3
:1003D0000E949E05A801BE018AE293E00E949E054C
:1003E000A8016AE271E0CE010E949E0582E480933A
:1003F0002A0385E680932B0387E680932C0389E606
:1004000080932D032EE620932E038AE380932F03FF
:1004100080E092E09093310380933003F0923307B1
:10042000E09232072093340784E6809335078DE00D
:10043000809336078AE08093370782E08093230118
:10044000DF91CF911F910F91FF90EF90DF90CF90B0
:1004500008950C9464011F920F920FB60F9211240D
:100460002F933F938F939F93AF93BF9380913907BF
:1004700090913A07A0913B07B0913C073091380723
:1004800023E0230F2D3720F40196A11DB11D05C0D7
:1004900026E8230F0296A11DB11D209338078093F3
:1004A000390790933A07A0933B07B0933C0780919C
:1004B0003D0790913E07A0913F07B09140070196FC
:1004C000A11DB11D80933D0790933E07A0933F0768
:1004D000B0934007BF91AF919F918F913F912F9122
:1004E0000F900FBE0F901F9018952FB7F894609142
:1004F000390770913A0780913B0790913C072FBFD5
:100500000895789484B5826084BD84B5816084BD8B
:1005100085B5826085BD85B5816085BDEEE6F0E07C
:10052000808181608083E1E8F0E0108280818260D8
:100530008083808181608083E0E8F0E08081816059
:100540008083E1EBF0E0808184608083E0EBF0E089
:10055000808181608083EAE7F0E08081846080832D
:1005600080818260808380818160808380818068D7
:1005700080831092C1000895833081F028F4813087
:1005800099F08230A1F008958730A9F08830B9F051
:100590008430D1F4809180008F7D03C080918000F1
:1005A0008F7780938000089584B58F7702C084B5DB
:1005B0008F7D84BD08958091B0008F7703C08091B6
:1005C000B0008F7D8093B0000895CF93DF9390E0CB
:1005D000FC01E458FF4F2491FC01E057FF4F849148
:1005E000882349F190E0880F991FFC01E255FF4FE5
:1005F000A591B4918C559F4FFC01C591D4919FB7A3
:10060000611108C0F8948C91209582238C93888185
:1006100082230AC0623051F4F8948C91322F3095C5
:1006200083238C938881822B888304C0F8948C91D7
:10063000822B8C939FBFDF91CF9108950F931F93CF
:10064000CF93DF931F92CDB7DEB7282F30E0F901AB
:10065000E859FF4F8491F901E458FF4F1491F901D3
:10066000E057FF4F04910023C9F0882321F06983EC
:100670000E94BC026981E02FF0E0EE0FFF1FEC55F5
:10068000FF4FA591B4919FB7F8948C91611103C06D
:100690001095812301C0812B8C939FBF0F90DF9118
:1006A000CF911F910F910895FC01818D228D90E0D3
:1006B000805C9F4F821B91098F7399270895FC01DD
:1006C000918D828D981731F0828DE80FF11D858D07
:1006D00090E008958FEF9FEF0895FC01918D828D3A
:1006E000981761F0828DDF01A80FB11D5D968C9186
:1006F000928D9F5F9F73928F90E008958FEF9FEF91
:10070000089581EF94E0892B49F080E090E0892BF7
:1007100029F00E94F10481110C9400000895FC015D
:10072000848DDF01A80FB11DA35ABF4F2C91848D7A
:1007300090E001968F739927848FA689B7892C93AF
:10074000A089B1898C9180648C93938D848D98134A
:1007500006C00288F389E02D80818F7D8083089513
:10076000CF93DF93EC01888D8823C9F0EA89FB8958
:10077000808185FD05C0A889B9898C9186FD0FC04F
:100780000FB607FCF5CF808185FFF2CFA889B98924
:100790008C9185FFEDCFCE010E948F03E7CFDF91D3
:1007A000CF910895CF92DF92FF920F931F93CF9333
:1007B000DF931F92CDB7DEB76C01DC015B969C9195
:1007C0005B975C968C915C97981307C05096ED915F
:1007D000FC915197808185FD32C0F601038D10E0B8
:1007E0000F5F1F4F0F731127F02EF601848DF81243
:1007F00011C00FB607FCF9CFD6015096ED91FC91D0
:100800005197808185FFF1CFC60169830E948F03D4
:100810006981EBCF838DE80FF11DE35AFF4F6083B1
:10082000D6015B960C935B975296ED91FC91539792
:1008300080818062808381E058968C930DC0D601C0
:100840005696ED91FC91579760835096ED91FC91EF
:10085000519780818064808381E090E00F90DF91E8
:10086000CF911F910F91FF90DF90CF900895BF928D
:10087000CF92DF92EF92FF92CF93DF93EC016A0168
:100880007B01B22EE889F98982E08083411581EEEF
:10089000580761057105A1F060E079E08DE390E013
:1008A000A70196010E94760521503109410951099D
:1008B0005695479537952795211580E1380798F08B
:1008C000E889F989108260E874E88EE190E0A70178
:1008D00096010E947605215031094109510956952A
:1008E000479537952795EC85FD853083EE85FF8507
:1008F0002083188EEC89FD89B082EA89FB8980818A
:1009000080618083EA89FB89808188608083EA89AD
:10091000FB89808180688083EA89FB8980818F7D63
:100920008083DF91CF91FF90EF90DF90CF90BF90C9
:1009300008951F920F920FB60F9211242F938F9349
:100940009F93EF93FF93E0915107F09152078081BD
:10095000E0915707F091580782FD12C09081809175
:100960005A078F5F8F7320915B07821751F0E091D8
:100970005A07F0E0EF5BF84F958F80935A0701C05C
:100980008081FF91EF919F918F912F910F900FBEDA
:100990000F901F9018951F920F920FB60F9211246F
:1009A0002F933F934F935F936F937F938F939F9377
:1009B000AF93BF93EF93FF9381E497E00E948F037F
:1009C000FF91EF91BF91AF919F918F917F916F9127
:1009D0005F914F913F912F910F900FBE0F901F90FD
:1009E000189581E497E00E94540321E0892B09F4D3
:1009F00020E0822F0895109244071092430788EE5A
:100A000093E0A0E0B0E08093450790934607A09361
:100A10004707B09348078BE091E09093420780939B
:100A2000410785EC90E090934E0780934D0784EC4E
:100A300090E09093500780934F0780EC90E0909364
:100A400052078093510781EC90E090935407809374
:100A5000530782EC90E0909356078093550786ECFD
:100A600090E0909358078093570710925A0710927E
:100A70005B0710925C0710925D07089508950E942D
:100A800081020E943E050E948700C1E8D3E00E94D7
:100A900029022097E1F30E948103F9CFCF92DF92E0
:100AA000EF92FF920F931F93CF93DF936C017A0124
:100AB000EB01E60EF71E00E010E0CE15DF0561F059
:100AC0006991D601ED91FC910190F081E02DC60174
:100AD0000995080F191FF1CFC801DF91CF911F9120
:100AE0000F91FF90EF90DF90CF900895A1E21A2E22
:100AF000AA1BBB1BFD010DC0AA1FBB1FEE1FFF1FC2
:100B0000A217B307E407F50720F0A21BB30BE40B11
:100B1000F50B661F771F881F991F1A9469F7609558
:100B20007095809590959B01AC01BD01CF01089512
:100B3000EE0FFF1F0590F491E02D0994FB01DC01FD
:100B400002C001900D9241505040D8F70895F8949A
:020B5000FFCFD5
:100B5200010002F401000000000000D2034E05541F
:080B6200036D035F03B0030003
:00000001FF
